:020000040800F2
:1000000000C00020F1A000081995000825950008FF
:100010002B95000831950008379500080000000076
:100020000000000000000000000000003D950008F6
:1000300049950008000000005595000861950008EA
:1000400039A1000839A1000839A1000839A1000828
:1000500039A1000839A1000839A1000839A1000818
:1000600039A1000839A1000839A100086D950008E0
:1000700039A100088195000839A10008959500086C
:10008000A9950008BD95000839A1000839A100080C
:10009000D195000839A1000839A1000839A100084C
:1000A00039A1000839A1000839A1000839A10008C8
:1000B00039A10008E595000839A1000839A1000818
:1000C00039A1000839A1000839A1000839A10008A8
:1000D00039A10008F995000819960008399600081A
:1000E00039A1000839A1000839A1000839A1000888
:1000F00039A1000839A1000839A1000839A1000878
:1001000039A1000839A100085996000839A1000852
:100110006D96000839A1000839A1000839A100082E
:1001200039A1000839A100088D960008A1960008A1
:1001300000000000000000000000000000000000BF
:1001400000000000000000000000000000000000AF
:10015000000000000000000000000000000000009F
:10016000000000000000000000000000000000008F
:10017000000000000000000000000000000000007F
:10018000000000000000000000000000000000006F
:10019000000000000000000000000000000000005F
:1001A000000000000000000000000000000000004F
:1001B000000000000000000000000000000000003F
:1001C000000000000000000000000000000000002F
:1001D000000000000000000000000000000000001F
:0401E0005FF8E0F1F3
:1001E80010B5054C237833B9044B13B10448AFF369
:1001F80000800123237010BD580200200000000079
:1002080098CC000808B5034B1BB103490348AFF36A
:10021800008008BD000000005C02002098CC0008A7
:10022800034613F8012B002AFBD1181A013870472E
:1002380081F0004102E000BF83F0004330B54FEA8F
:1002480041044FEA430594EA050F08BF90EA020FFC
:100258001FBF54EA000C55EA020C7FEA645C7FEA8F
:10026800655C00F0E2804FEA5454D4EB5555B8BFB2
:100278006D420CDD2C4480EA020281EA030382EA23
:10028800000083EA010180EA020281EA0303362DB5
:1002980088BF30BD11F0004F4FEA01314FF4801C88
:1002A8004CEA113102D0404261EB410113F0004F9A
:1002B8004FEA03334CEA133302D0524263EB430351
:1002C80094EA050F00F0A780A4F10104D5F1200EEF
:1002D8000DDB02FA0EFC22FA05F2801841F100014A
:1002E80003FA0EF2801843FA05F359410EE0A5F11E
:1002F80020050EF1200E012A03FA0EFC28BF4CF04F
:10030800020C43FA05F3C01851EBE37101F0004504
:1003180007D54FF0000EDCF1000C7EEB00006EEB11
:100328000101B1F5801F1BD3B1F5001F0CD349089B
:100338005FEA30004FEA3C0C04F101044FEA4452F2
:1003480012F5800F80F09A80BCF1004F08BF5FEA79
:10035800500C50F1000041EB045141EA050130BD59
:100368005FEA4C0C404141EB010111F4801FA4F1FC
:100378000104E9D191F0000F04BF01460020B1FA51
:1003880081F308BF2033A3F10B03B3F120020CDA89
:100398000C3208DD02F1140CC2F10C0201FA0CF067
:1003A80021FA02F10CE002F11402D8BFC2F1200CCC
:1003B80001FA02F120FA0CFCDCBF41EA0C01904082
:1003C800E41AA2BF01EB0451294330BD6FEA0404CB
:1003D8001F3C1CDA0C340EDC04F11404C4F12002B6
:1003E80020FA04F001FA02F340EA030021FA04F3C8
:1003F80045EA030130BDC4F10C04C4F1200220FA1F
:1004080002F001FA04F340EA0300294630BD21FA5C
:1004180004F0294630BD94F0000F83F4801306BF22
:1004280081F480110134013D4EE77FEA645C18BF16
:100438007FEA655C29D094EA050F08BF90EA020FAD
:1004480005D054EA000C04BF1946104630BD91EAA5
:10045800030F1EBF0021002030BD5FEA545C05D1A8
:100468004000494128BF41F0004130BD14F58004E7
:100478003CBF01F5801130BD01F0004545F0FE415B
:1004880041F470014FF0000030BD7FEA645C1ABF90
:10049800194610467FEA655C1CBF0B46024650EAC7
:1004A800013406BF52EA033591EA030F41F40021F3
:1004B80030BD00BF90F0000F04BF0021704730B579
:1004C8004FF4806404F132044FF000054FF000014E
:1004D80050E700BF90F0000F04BF0021704730B50F
:1004E8004FF4806404F1320410F0004548BF4042E4
:1004F8004FF000013EE700BF42004FEAE2014FEA39
:1005080031014FEA02701FBF12F07F4393F07F4F13
:1005180081F06051704792F0000F14BF93F07F4F45
:10052800704730B54FF4607401F0004521F0004188
:1005380020E700BF50EA010208BF704730B54FF00E
:1005480000050AE050EA010208BF704730B511F013
:10055800004502D5404261EB41014FF4806404F14B
:1005680032045FEA915C3FF4DCAE4FF003025FEACD
:10057800DC0C18BF03325FEADC0C18BF033202EB55
:10058800DC02C2F1200300FA03FC20FA02F001FAAF
:1005980003FE40EA0E0021FA02F11444C1E600BF4E
:1005A80070B54FF0FF0C4CF4E06C1CEA11541DBF01
:1005B8001CEA135594EA0C0F95EA0C0F00F0DEF8CC
:1005C8002C4481EA030621EA4C5123EA4C5350EAB1
:1005D800013518BF52EA033541F4801143F4801302
:1005E80038D0A0FB02CE4FF00005E1FB02E506F093
:1005F8000042E0FB03E54FF00006E1FB03569CF0E8
:10060800000F18BF4EF0010EA4F1FF04B6F5007FED
:1006180064F5407404D25FEA4E0E6D4146EB06065F
:1006280042EAC62141EA55514FEAC52040EA5E50E8
:100638004FEACE2EB4F1FD0C88BFBCF5E06F1ED892
:10064800BEF1004F08BF5FEA500E50F1000041EBC9
:10065800045170BD06F0004646EA010140EA020076
:1006680081EA0301B4EB5C04C2BFD4EB0C0541EA98
:10067800045170BD41F480114FF0000E013C00F3AD
:10068800AB8014F1360FDEBF002001F0004170BDD1
:10069800C4F10004203C35DA0C341BDC04F11404EA
:1006A800C4F1200500FA05F320FA04F001FA05F276
:1006B80040EA020001F0004221F0004110EBD37043
:1006C80021FA04F642EB06015EEA430E08BF20EA6F
:1006D800D37070BDC4F10C04C4F1200500FA04F312
:1006E80020FA05F001FA04F240EA020001F00041A4
:1006F80010EBD37041F100015EEA430E08BF20EA17
:10070800D37070BDC4F1200500FA05F24EEA020E5E
:1007180020FA04F301FA05F243EA020321FA04F08D
:1007280001F0004121FA04F220EA020000EBD37044
:100738005EEA430E08BF20EAD37070BD94F0000F44
:100748000FD101F00046400041EB010111F4801F78
:1007580008BF013CF7D041EA060195F0000F18BF29
:10076800704703F00046520043EB030313F4801F65
:1007780008BF013DF7D043EA0603704794EA0C0F1F
:100788000CEA135518BF95EA0C0F0CD050EA410635
:1007980018BF52EA4306D1D181EA030101F00041B2
:1007A8004FF0000070BD50EA410606BF10461946DA
:1007B80052EA430619D094EA0C0F02D150EA0136E6
:1007C80013D195EA0C0F05D152EA03361CBF104627
:1007D80019460AD181EA030101F0004141F0FE41C6
:1007E80041F470014FF0000070BD41F0FE4141F44A
:1007F800780170BD70B54FF0FF0C4CF4E06C1CEA4A
:1008080011541DBF1CEA135594EA0C0F95EA0C0FFE
:1008180000F0A7F8A4EB050481EA030E52EA0335B9
:100828004FEA013100F088804FEA03334FF08055DA
:1008380045EA131343EA12634FEA022245EA111507
:1008480045EA10654FEA00260EF000419D4208BFB8
:10085800964244F1FD0404F5407402D25B084FEA65
:100868003202B61A65EB03055B084FEA32024FF411
:1008780080104FF4002CB6EB020E75EB030E22BF6E
:10088800B61A754640EA0C005B084FEA3202B6EB2E
:10089800020E75EB030E22BFB61A754640EA5C00DD
:1008A8005B084FEA3202B6EB020E75EB030E22BF6D
:1008B800B61A754640EA9C005B084FEA3202B6EB6E
:1008C800020E75EB030E22BFB61A754640EADC002D
:1008D80055EA060E18D04FEA051545EA16754FEA8F
:1008E80006164FEAC30343EA52734FEAC2025FEAAD
:1008F8001C1CC0D111F4801F0BD141EA00014FF03C
:1009080000004FF0004CB6E711F4801F04BF01430C
:100918000020B4F1FD0C88BFBCF5E06F3FF6AFAE28
:10092800B5EB030C04BFB6EB020C5FEA500C50F1B8
:10093800000041EB045170BD0EF0004E4EEA11313B
:1009480014EB5C04C2BFD4EB0C0541EA045170BD42
:1009580041F480114FF0000E013C90E645EA060E86
:100968008DE60CEA135594EA0C0F08BF95EA0C0FB4
:100978003FF43BAF94EA0C0F0AD150EA01347FF4FC
:1009880034AF95EA0C0F7FF425AF104619462CE7D3
:1009980095EA0C0F06D152EA03353FF4FDAE104636
:1009A800194622E750EA410618BF52EA43067FF487
:1009B800C5AE50EA41047FF40DAF52EA43057FF417
:1009C800EBAE12E74FF0FF3C06E000BF4FF0010C22
:1009D80002E000BF4FF0010C4DF804CD4FEA410C86
:1009E8007FEA6C5C4FEA430C18BF7FEA6C5C1BD053
:1009F80001B050EA410C0CBF52EA430C91EA030FD4
:100A080002BF90EA020F0020704710F1000F91EA30
:100A1800030F58BF994208BF90422CBFD8176FEAFE
:100A2800E37040F0010070474FEA410C7FEA6C5CCC
:100A380002D150EA013C07D14FEA430C7FEA6C5CD3
:100A4800D6D152EA033CD3D05DF8040B704700BFFF
:100A58008446104662468C461946634600E000BF4D
:100A680001B5FFF7B7FF002848BF10F1000F01BD1F
:100A78004DF808EDFFF7F4FF0CBF012000205DF8EA
:100A880008FB00BF4DF808EDFFF7EAFF34BF01206F
:100A980000205DF808FB00BF4DF808EDFFF7E0FF08
:100AA80094BF012000205DF808FB00BF4DF808ED59
:100AB800FFF7CEFF94BF012000205DF808FB00BFC0
:100AC8004DF808EDFFF7C4FF34BF012000205DF8A2
:100AD80008FB00BF4FEA410C7FEA6C5C02D150EA88
:100AE800013C0AD14FEA430C7FEA6C5C02D152EA1E
:100AF800033C02D14FF0000070474FF001007047EF
:100B08004FEA410212F5001215D211D56FF478732D
:100B1800B3EB625212D94FEAC12343F0004343EAD0
:100B2800505311F0004F23FA02F018BF40427047AB
:100B38004FF00000704750EA013005D111F0004035
:100B480008BF6FF0004070474FF00000704700BFCB
:100B58004A0011D212F5001211D20DD56FF4787334
:100B6800B3EB62520ED44FEAC12343F0004343EA89
:100B7800505323FA02F070474FF00000704750EAD4
:100B8800013002D14FF0FF3070474FF0000070473E
:100B98004FEA4102B2F1E04324BFB3F5001CDCF197
:100BA800FE5C0DD901F0004C4FEAC0024CEA5070CF
:100BB800B2F1004F40EB830008BF20F001007047FE
:100BC80011F0804F21D113F13872BCBF01F0004001
:100BD800704741F480114FEA5252C2F11802C2F133
:100BE800200C10FA0CF320FA02F018BF40F00100B4
:100BF8004FEAC1234FEAD32303FA0CFC40EA0C0066
:100C080023FA02F34FEA4303CCE77FEA625307D1A2
:100C180050EA01331EBF4FF0FE4040F440007047D9
:100C280001F0004040F0FE4040F40000704700BF73
:100C380080F0004002E000BF81F0004142001FBF89
:100C48005FEA410392EA030F7FEA226C7FEA236C92
:100C58006AD04FEA1262D2EB1363C1BFD218414087
:100C680048404140B8BF5B42192B88BF704710F01D
:100C7800004F40F4000020F07F4018BF404211F0C0
:100C8800004F41F4000121F07F4118BF494292EA28
:100C9800030F3FD0A2F1010241FA03FC10EB0C0054
:100CA800C3F1200301FA03F100F0004302D54942E1
:100CB80060EB4000B0F5000F13D3B0F1807F06D38E
:100CC80040084FEA310102F10102FE2A51D2B1F186
:100CD800004F40EBC25008BF20F0010040EA03007B
:100CE8007047490040EB000010F4000FA2F1010228
:100CF800EDD1B0FA80FCACF1080CB2EB0C0200FAB2
:100D08000CF0AABF00EBC25052421843BCBFD040FF
:100D18001843704792F0000F81F4000106BF80F479
:100D280000000132013BB5E74FEA41037FEA226C3C
:100D380018BF7FEA236C21D092EA030F04D092F007
:100D4800000F08BF0846704790EA010F1CBF00203B
:100D5800704712F07F4F04D1400028BF40F0004098
:100D6800704712F100723CBF00F50000704700F0B8
:100D7800004343F0FE4040F4000070477FEA2262DF
:100D880016BF08467FEA23630146420206BF5FEAB0
:100D9800412390EA010F40F4800070474FF00003B0
:100DA80004E000BF10F0004348BF40425FEA000C77
:100DB80008BF704743F0964301464FF000001CE01F
:100DC80050EA010208BF70474FF000030AE000BF75
:100DD80050EA010208BF704711F0004302D54042B3
:100DE80061EB41015FEA010C02BF84460146002025
:100DF80043F0B64308BFA3F18053A3F50003BCFA40
:100E08008CF2083AA3EBC25310DB01FA02FC6344EC
:100E180000FA02FCC2F12002BCF1004F20FA02F2F3
:100E280043EB020008BF20F00100704702F12002E6
:100E380001FA02FCC2F1200250EA4C0021FA02F247
:100E480043EB020008BF20EADC7070474FF0FF0C4C
:100E58001CEAD0521EBF1CEAD15392EA0C0F93EA47
:100E68000C0F6FD01A4480EA010C400218BF5FEAE9
:100E780041211ED04FF0006343EA501043EA51115C
:100E8800A0FB01310CF00040B1F5000F3EBF490056
:100E980041EAD3715B0040EA010062F17F02FD2A5A
:100EA8001DD8B3F1004F40EBC25008BF20F001003D
:100EB800704790F0000F0CF0004C08BF49024CEA54
:100EC800502040EA51207F3AC2BFD2F1FF0340EAE6
:100ED800C250704740F400004FF00003013A5DDC57
:100EE80012F1190FDCBF00F000407047C2F1000298
:100EF800410021FA02F1C2F1200200FA02FC5FEA85
:100F0800310040F1000053EA4C0308BF20EADC70CE
:100F1800704792F0000F00F0004C02BF400010F440
:100F2800000F013AF9D040EA0C0093F0000F01F0ED
:100F3800004C02BF490011F4000F013BF9D041EA0F
:100F48000C018FE70CEAD15392EA0C0F18BF93EA11
:100F58000C0F0AD030F0004C18BF31F0004CD8D13B
:100F680080EA010000F00040704790F0000F17BFC2
:100F780090F0004F084691F0000F91F0004F14D008
:100F880092EA0C0F01D142020FD193EA0C0F03D160
:100F98004B0218BF084608D180EA010000F0004063
:100FA80040F0FE4040F40000704740F0FE4040F43E
:100FB800400070474FF0FF0C1CEAD0521EBF1CEADD
:100FC800D15392EA0C0F93EA0C0F69D0A2EB0302FB
:100FD80080EA010C49024FEA402037D04FF0805395
:100FE80043EA111143EA10130CF000408B4238BF5A
:100FF8005B0042F17D024FF4000C8B4224BF5B1A68
:1010080040EA0C00B3EB510F24BFA3EB510340EAB5
:101018005C00B3EB910F24BFA3EB910340EA9C0063
:10102800B3EBD10F24BFA3EBD10340EADC001B01D3
:1010380018BF5FEA1C1CE0D1FD2A3FF650AF8B4277
:1010480040EBC25008BF20F0010070470CF0004C84
:101058004CEA50207F32C2BFD2F1FF0340EAC250AF
:10106800704740F400004FF00003013A37E792F070
:10107800000F00F0004C02BF400010F4000F013ACE
:10108800F9D040EA0C0093F0000F01F0004C02BFC9
:10109800490011F4000F013BF9D041EA0C0195E732
:1010A8000CEAD15392EA0C0F08D142027FF47DAFCB
:1010B80093EA0C0F7FF470AF084676E793EA0C0FBB
:1010C80004D14B023FF44CAF08466EE730F0004CB9
:1010D80018BF31F0004CCAD130F000427FF45CAF49
:1010E80031F000437FF43CAF5FE700BF4FF0FF3CB7
:1010F80006E000BF4FF0010C02E000BF4FF0010C0A
:101108004DF804CD4FEA40024FEA41037FEA226CD2
:1011180018BF7FEA236C11D001B052EA530C18BFF4
:1011280090EA010F58BFB2EB030088BFC81738BF59
:101138006FEAE17018BF40F0010070477FEA226C47
:1011480002D15FEA402C05D17FEA236CE4D15FEA43
:10115800412CE1D05DF8040B704700BF8446084677
:101168006146FFE70FB5FFF7C9FF002848BF10F138
:10117800000F0FBD4DF808EDFFF7F4FF0CBF01207D
:1011880000205DF808FB00BF4DF808EDFFF7EAFF07
:1011980034BF012000205DF808FB00BF4DF808EDC2
:1011A800FFF7E0FF94BF012000205DF808FB00BFB7
:1011B8004DF808EDFFF7D2FF94BF012000205DF83D
:1011C80008FB00BF4DF808EDFFF7C8FF34BF01204A
:1011D80000205DF808FB00BF42000ED2B2F1FE4FBE
:1011E8000BD34FF09E03B3EB126209D44FEA0023EE
:1011F80043F0004323FA02F070474FF000007047B5
:1012080012F1610F01D1420202D14FF0FF30704755
:101218004FF00000704700BF80B500AF084A084B88
:101228001B6843F010031360032001F0E9FA002063
:1012380000F008F808F03AF90023184680BD00BF0E
:101248000020024080B582B000AF7860124B1A6867
:10125800124B1B7819464FF47A73B3FBF1F3B2FBC8
:10126800F3F3184601F001FB0346002B01D00123DC
:101278000EE07B680F2B0AD8002279684FF0FF3008
:1012880001F0C9FA064A7B681360002300E00123D5
:1012980018460837BD4680BD8400002004000020A1
:1012A8000000002080B400AF054B1B781A46054BA0
:1012B8001B681344034A136000BFBD4680BC7047D7
:1012C80004000020F003002080B400AF024B1B682C
:1012D8001846BD4680BC7047F003002080B584B036
:1012E80000AF7860FFF7F0FFB8607B68FB60FB68D1
:1012F800B3F1FF3F05D0094B1B781A46FB6813442E
:10130800FB6000BFFFF7E0FF0246BB68D21AFB682C
:101318009A42F7D300BF1037BD4680BD04000020B5
:1013280080B586B000AF78600023FB7500233B6171
:101338000023BB600023FB607B68002B01D10123E5
:10134800CEE07B689B68002B7B689B6A002B09D1E9
:101358007B680022DA627B68002283F824207868A0
:1013680006F022FD786800F0EFFB0346FB757B680A
:101378009B6A03F01003002B40F0A980FB7D002B33
:1013880040F0A5807B689B6A23F4885323F002030E
:1013980043F002027B689A627B685A687B681B6824
:1013A80051498B420AD17B68DB69B3F5402F02D0E3
:1013B8007B68DB6904E04FF4002301E07B68DB69AC
:1013C8001A437B68DB685B001343BA681343BB604E
:1013D8007B689B68B3F5807F03D07B689B68012B93
:1013E80002D14FF4807300E000233A6913433B6154
:1013F8007B685B69012B19D17B68DB68002B09D1FD
:101408007B689B69013B5A033B69134343F40063C0
:101418003B610BE07B689B6A43F020027B689A6221
:101428007B68DB6A43F001027B68DA627B681B68D1
:101438007A681268526822F469413A690A435A6024
:101448007B681A687B681B689968284B0B40B968E9
:101458000B4393607B689B68B3F5807F03D07B6800
:101468009B68012B04D17B681B69013B1B05FB6052
:101478007B681B687A681268D26A22F47001FA687D
:101488000A43DA627B681B689A68194B1340BA688A
:1014980093420BD17B680022DA627B689B6A23F057
:1014A800030343F001027B689A6218E07B689B6A39
:1014B80023F0120343F010027B689A627B68DB6AB0
:1014C80043F001027B68DA620123FB7507E07B6861
:1014D8009B6A43F010027B689A620123FB75FB7DCF
:1014E80018461837BD4680BD003C0140FDF7E1FFB6
:1014F800FE0E1FFF80B584B000AF78600023FB7339
:101508007B6893F82430012B01D1022398E07B6893
:10151800012283F82420786800F0C4FA0346FB739C
:10152800FB7B002B40F087807B689B6A23F4407329
:1015380023F0010343F480727B689A627B681B681E
:10154800414A934205D1414B5B6803F47023002B59
:1015580015D17B689B6A23F480127B689A627B684A
:101568001B685B6803F48063002B26D07B689B6A4A
:1015780023F4405343F480527B689A621DE07B68F1
:101588009B6A43F480127B689A627B681B682F4AC7
:10159800934204D07B681B682B4A93420DD12B4B96
:1015A8005B6803F48063002B07D07B689B6A23F495
:1015B800405343F480527B689A627B689B6A03F4C9
:1015C8008053002B06D07B68DB6A23F006027B6819
:1015D800DA6202E07B680022DA627B68002283F824
:1015E80024207B681B686FF002021A607B681B6806
:1015F8009B6803F46023B3F5602F13D17B681B68E5
:10160800114A934205D1114B5B6803F47023002BF8
:1016180008D17B681B687A681268926842F4A00255
:101628009A600CE07B681B687A681268926842F4DA
:1016380080129A6003E07B68002283F82420FB7BF9
:1016480018461037BD4680BD0028014000240140DF
:1016580080B584B000AF78600023FB737B6893F893
:101668002430012B01D102231AE07B68012283F880
:101678002420786800F068FA0346FB73FB7B002B94
:1016880009D17B689B6A23F4885323F0010343F054
:1016980001027B689A627B68002283F82420FB7B26
:1016A80018461037BD4680BD90B587B000AF78604A
:1016B800396000237B610023FB6000233B61FFF757
:1016C80003FE78617B681B689B6803F48073002BBA
:1016D8000BD07B689B6A43F020027B689A627B6828
:1016E800002283F824200123C8E07B681B685B681C
:1016F80003F48073002B2AD17B681B68DB6A03F430
:101708007003002B23D11AE03B68B3F1FF3F16D0DA
:101718003B68002B07D0FFF7D7FD02467B69D21A3A
:101728003B689A420BD97B689B6A43F004027B684A
:101738009A627B68002283F8242003239EE07B685A
:101748001B681B6803F00203002BDDD06CE04D4BD7
:101758001C68022003F012FB0346B4FBF3F27B681B
:101768001B681969484B0B40002B18D17B681B6814
:10177800D968464B0B40002B11D17B681B6819694F
:10178800434B0B40002B08D17B681B68D968414B41
:101798000B40002B01D1142320E029231EE07B6895
:1017A8001B6819693A4B0B40002B06D17B681B68F4
:1017B800D968384B0B40002B0DD07B681B68196922
:1017C800354B0B40002B08D17B681B68D968324B1E
:1017D8000B40002B01D1542300E0FC2303FB02F350
:1017E8003B611DE03B68B3F1FF3F16D03B68002B1F
:1017F80007D0FFF769FD02467B69D21A3B689A4217
:101808000BD97B689B6A43F004027B689A627B6809
:10181800002283F82420032330E0FB680133FB60B7
:10182800FA683B699A42DDD37B681B686FF0120245
:101838001A607B689B6A43F400727B689A627B68D3
:101848001B689B6803F46023B3F5602F15D17B6890
:10185800DB68002B11D17B689B6A23F480727B685C
:101868009A627B689B6A03F48053002B05D17B68DE
:101878009B6A43F001027B689A62002318461C3772
:10188800BD4690BD8400002024499224244992003A
:1018980092244912922449004992240080B483B0CA
:1018A80000AF78607B681B68DB6C18460C37BD4658
:1018B80080BC704790B484B000AF78603960002372
:1018C800FB730023BB607B6893F82430012B01D1A4
:1018D8000223DCE07B68012283F824203B685B68F4
:1018E800062B1CD87B6819687B681B68586B3B689B
:1018F8005A6813469B001344053B1F2202FA03F360
:10190800DB4318403B681C683B685A6813469B00D9
:101918001344053B04FA03F303434B633CE03B6881
:101928005B680C2B1CD87B6819687B681B68186B74
:101938003B685A6813469B001344233B1F2202FA54
:1019480003F3DB4318403B681C683B685A6813463E
:101958009B001344233B04FA03F303430B631BE08C
:101968007B6819687B681B68D86A3B685A681346A5
:101978009B001344413B1F2202FA03F3DB43184048
:101988003B681C683B685A6813469B001344413BFC
:1019980004FA03F30343CB623B681B68092B1CD989
:1019A8007B6819687B681B68D8683B681A681346A7
:1019B8005B0013441E3B072202FA03F3DB43184083
:1019C8003B689C683B681A6813465B0013441E3BDF
:1019D80004FA03F30343CB6019E07B6819687B685A
:1019E8001B6818693B681A6813465B001344072292
:1019F80002FA03F3DB4318403B689C683B681A68AB
:101A080013465B00134404FA03F303430B613B687A
:101A18001B68102B03D03B681B68112B32D17B68E5
:101A28001B681D4A934225D17B681B689B6803F499
:101A38000003002B26D17B681B687A6812689268BD
:101A480042F400029A603B681B68102B1AD1134BB2
:101A58001B68134AA2FB03239A0C13469B001344EA
:101A68005B00BB6002E0BB68013BBB60BB68002B4E
:101A7800F9D107E07B689B6A43F020027B689A6291
:101A88000123FB737B68002283F82420FB7B184624
:101A98001037BD4690BC70470024014084000020E8
:101AA80083DE1B4380B584B000AF78600023FB6001
:101AB8000023BB607B681B689B6803F00103012B54
:101AC80039D07B681B687A681268926842F0010214
:101AD8009A601B4B1B681B4AA2FB03239B0CBB6031
:101AE80002E0BB68013BBB60BB68002BF9D1FFF784
:101AF800EBFBF86018E0FFF7E7FB0246FB68D31A38
:101B0800022B11D97B689B6A43F010027B689A62AA
:101B18007B68DB6A43F001027B68DA627B6800223B
:101B280083F82420012307E07B681B689B6803F087
:101B38000103012BDFD1002318461037BD4680BDB5
:101B48008400002083DE1B4380B584B000AF78603A
:101B58000023FB607B681B689B6803F00103012B73
:101B680027D17B681B687A681268926822F00102A4
:101B78009A60FFF7A9FBF86014E0FFF7A5FB02469F
:101B8800FB68D31A022B0DD97B689B6A43F01002BD
:101B98007B689A627B68DB6A43F001027B68DA62E1
:101BA800012307E07B681B689B6803F00103012B96
:101BB800E3D0002318461037BD4680BD80B584B0F9
:101BC80000AF78607B68002B01D10123ECE07B68D3
:101BD80093F82030DBB2002B02D1786807F07AF94D
:101BE8007B681B687A681268126822F002021A6021
:101BF800FFF76AFBF86012E0FFF766FB0246FB6836
:101C0800D31A0A2B0BD97B685B6A43F400327B68D2
:101C18005A627B68052283F820200123C4E07B6890
:101C28001B685B6803F00203002BE5D17B681B6827
:101C38007A681268126842F001021A60FFF744FBE2
:101C4800F86012E0FFF740FB0246FB68D31A0A2B44
:101C58000BD97B685B6A43F400327B685A627B6805
:101C6800052283F8202001239EE07B681B685B68BF
:101C780003F00103002BE5D07B681B7E012B08D104
:101C88007B681B687A681268126842F080021A60E2
:101C980007E07B681B687A681268126822F0800285
:101CA8001A607B685B7E012B08D17B681B687A68A9
:101CB8001268126842F040021A6007E07B681B68ED
:101CC8007A681268126822F040021A607B689B7E6C
:101CD800012B08D17B681B687A681268126842F089
:101CE80020021A6007E07B681B687A68126812682D
:101CF80022F020021A607B68DB7E012B08D17B680A
:101D08001B687A681268126822F010021A6007E0ED
:101D18007B681B687A681268126842F010021A60C1
:101D28007B681B7F012B08D17B681B687A68126867
:101D3800126842F008021A6007E07B681B687A683C
:101D48001268126822F008021A607B685B7F012B18
:101D580008D17B681B687A681268126842F004022E
:101D68001A6007E07B681B687A681268126822F0BC
:101D780004021A607B681B687A6891687A68D2687E
:101D880011437A68126911437A68526911437A6873
:101D98005268013A0A43DA617B6800225A627B681A
:101DA800012283F82020002318461037BD4680BD45
:101DB80080B487B000AF786039607B681B687B614E
:101DC8007B6893F82030FB74FB7C012B03D0FB7CF1
:101DD800022B40F0AA807B69D3F8003243F001025D
:101DE8007B69C3F800223B685B6903F01F0301228B
:101DF80002FA03F3FB607B69D3F81C22FB68DB4320
:101E08001A407B69C3F81C223B68DB69002B23D18D
:101E18007B69D3F80C22FB68DB431A407B69C3F863
:101E28000C223B685A693B68DB6819043B685B68AD
:101E38009BB219437B69483243F832103B685B69AF
:101E48003A68926811043A68126892B20A4379694A
:101E58004833DB000B445A603B68DB69012B22D115
:101E68007B69D3F80C22FB681A437B69C3F80C2200
:101E78003B685A693B681B6819043B685B689BB2FE
:101E880019437B69483243F832103B685B693A680A
:101E9800926811043A68D26892B20A437969483361
:101EA800DB000B445A603B689B69002B09D17B69B6
:101EB800D3F80422FB68DB431A407B69C3F8042289
:101EC80007E07B69D3F80422FB681A437B69C3F8EF
:101ED80004223B681B69002B09D17B69D3F81422C3
:101EE800FB68DB431A407B69C3F8142207E07B696F
:101EF800D3F81422FB681A437B69C3F814223B68A1
:101F08001B6A012B07D17B69D3F81C22FB681A4393
:101F18007B69C3F81C227B69D3F8003223F00102E5
:101F28007B69C3F80022002306E07B685B6A43F400
:101F380080227B685A62012318461C37BD4680BC44
:101F4800704780B584B000AF78607B6893F8203024
:101F5800DBB2012B2ED17B68022283F820207B681C
:101F68001B687A681268126822F001021A60FFF78B
:101F7800ABF9F86012E0FFF7A7F90246FB68D31A3D
:101F88000A2B0BD97B685B6A43F400327B685A6280
:101F98007B68052283F82020012312E07B681B68F8
:101FA8005B6803F00103002BE5D17B6800225A62CD
:101FB800002306E07B685B6A43F400227B685A6270
:101FC800012318461037BD4680BD80B487B000AFE6
:101FD800F860B9607A603B60FB6893F82030FB7565
:101FE800FB7D012B03D0FB7D022B40F0F480BB6806
:101FF800002B0ED1FB681B68DB6803F00303002B82
:1020080016D1FB685B6A43F40012FB685A6201232D
:10201800E8E0FB681B681B6903F00303002B07D18A
:10202800FB685B6A43F40012FB685A620123D9E03B
:10203800FB681A68BB681B331B0113441B6803F059
:1020480004027B689A607B689B68002B0CD1FB6854
:102058001A68BB681B331B0113441B685B0DC3F371
:102068000A027B681A600BE0FB681A68BB681B33BE
:102078001B0113441B68DB0823F060427B685A602D
:10208800FB681A68BB681B331B0113441B685B0899
:1020980003F001027B68DA60FB681A68BB681B33CF
:1020A8001B01134404331B6803F00F027B681A6199
:1020B800FB681A68BB681B331B01134404331B6895
:1020C8001B0ADAB27B689A61FB681A68BB681B3323
:1020D8001B01134404331B681B0C9AB27B685A61BA
:1020E800FB681A68BB681B01134403F5DC731B68A3
:1020F800DAB23B681A703B680133FA681168BA684B
:1021080012010A4402F5DC721268120AD2B21A707D
:102118003B680233FA681168BA6812010A4402F58A
:10212800DC721268120CD2B21A703B680333FA6878
:102138001168BA6812010A4402F5DC721268120EBC
:10214800D2B21A703B680433FA681168BA6812018F
:102158000A4402F5DE721268D2B21A703B6805337F
:10216800FA681168BA6812010A4402F5DE72126848
:10217800120AD2B21A703B680633FA681168BA6854
:1021880012010A4402F5DE721268120CD2B21A70F9
:102198003B680733FA681168BA6812010A4402F505
:1021A800DE721268120ED2B21A70BB68002B08D108
:1021B800FB681B68FA681268D26842F02002DA608D
:1021C80007E0FB681B68FA681268126942F020028F
:1021D8001A61002306E0FB685B6A43F48022FB680F
:1021E8005A62012318461C37BD4680BC704780B42C
:1021F80085B000AF786039607B6893F82030FB7356
:10220800FB7B012B02D0FB7B022B09D17B681B686F
:102218007A68126851693A680A435A61002306E0ED
:102228007B685B6A43F480227B685A620123184604
:102238001437BD4680BC704780B58AB000AF78605F
:1022480000237B627B681B685B693B627B681B6859
:102258005B68FB617B681B689B68BB617B681B686C
:10226800DB687B617B681B681B693B617B681B685B
:102278009B69FB603B6A03F00103002B7CD0BB69C0
:1022880003F00103002B23D07B681B6801229A60AE
:10229800BB6903F00203002B03D0786800F07DF9D6
:1022A80016E0BB6903F00403002B04D07B6A43F4F7
:1022B80000637B620CE0BB6903F00803002B04D0C9
:1022C8007B6A43F480537B6202E0786800F080F90F
:1022D800BB6903F48073002B24D07B681B684FF420
:1022E80080729A60BB6903F40073002B03D078688E
:1022F80000F05CF916E0BB6903F48063002B04D09E
:102308007B6A43F400537B620CE0BB6903F400630F
:10231800002B04D07B6A43F480437B6202E0786838
:1023280000F05FF9BB6903F48033002B24D07B688D
:102338001B684FF480329A60BB6903F40033002BAA
:1023480003D0786800F03BF916E0BB6903F48023FA
:10235800002B04D07B6A43F400437B620CE0BB692A
:1023680003F40023002B04D07B6A43F480337B62A0
:1023780002E0786800F03EF93B6A03F00803002B9E
:102388000CD07B6903F01003002B07D07B6A43F461
:1023980000737B627B681B681022DA603B6A03F07B
:1023A8000403002B0BD07B6903F00803002B06D035
:1023B8007B681B680822DA60786800F024F93B6AB9
:1023C80003F00203002B09D07B681B68DB6803F06D
:1023D8000303002B02D0786806F0D0FD3B6A03F0B7
:1023E8004003002B0CD03B6903F01003002B07D0EF
:1023F8007B6A43F480637B627B681B6810221A61E6
:102408003B6A03F02003002B0BD03B6903F0080361
:10241800002B06D07B681B6808221A61786800F0D8
:1024280004F93B6A03F01003002B09D07B681B6892
:102438001B6903F00303002B02D0786800F0ECF866
:102448003B6A03F40033002B0BD0FB6903F0100345
:10245800002B06D07B681B6810225A60786800F051
:10246800EDF83B6A03F48033002B0BD0FB6903F0D3
:102478000803002B06D07B681B6808225A6078681E
:1024880000F0E5F83B6A03F40043002B75D0FB69C4
:1024980003F00403002B6CD03B6A03F48073002B19
:1024A80008D0FB6803F00103002B03D07B6A43F0DC
:1024B80001037B623B6A03F40073002B08D0FB68BE
:1024C80003F00203002B03D07B6A43F002037B6214
:1024D8003B6A03F48063002B08D0FB6803F0040315
:1024E800002B03D07B6A43F004037B623B6A03F44E
:1024F8000063002B3DD0FB6803F07003002B38D03D
:10250800FB6803F07003302B17D0302B04D8102B46
:1025180009D0202B0CD024E0502B18D0602B1BD0D6
:10252800402B0FD01DE07B6A43F008037B6218E064
:102538007B6A43F010037B6213E07B6A43F020035D
:102548007B620EE07B6A43F040037B6209E07B6AB2
:1025580043F080037B6204E07B6A43F480737B6210
:1025680000BF7B681B687A681268926922F0700263
:102578009A617B681B6804225A607B6A002B08D02A
:102588007B685A6A7B6A1A437B685A62786800F0EB
:1025980067F800BF2837BD4680BD80B483B000AF60
:1025A800786000BF0C37BD4680BC704780B483B0EC
:1025B80000AF786000BF0C37BD4680BC704780B460
:1025C80083B000AF786000BF0C37BD4680BC704751
:1025D80080B483B000AF786000BF0C37BD4680BCC4
:1025E800704780B483B000AF786000BF0C37BD4639
:1025F80080BC704780B483B000AF786000BF0C37F0
:10260800BD4680BC704780B483B000AF786000BF1F
:102618000C37BD4680BC704780B483B000AF78608B
:1026280000BF0C37BD4680BC704780B483B000AF94
:10263800786000BF0C37BD4680BC704780B483B05B
:1026480000AF786000BF0C37BD4680BC704780B4CF
:1026580083B000AF786000BF0C37BD4680BC7047C0
:1026680080B483B000AF786000BF0C37BD4680BC33
:102678007047000080B485B000AF78607B6803F0D5
:102688000703FB600C4BDB68BB60BA684FF6FF03BF
:102698001340BB60FB681A02BB68134343F0BF6377
:1026A80043F40033BB60044ABB68D36000BF1437EF
:1026B800BD4680BC704700BF00ED00E080B400AFAD
:1026C800044BDB681B0A03F007031846BD4680BCB1
:1026D800704700BF00ED00E080B483B000AF034650
:1026E800FB71084997F907305B09FA7902F01F0274
:1026F800012000FA02F241F8232000BF0C37BD4642
:1027080080BC704700E100E080B483B000AF0346AE
:102718003960FB7197F90730002B0BDA0D49FB790B
:1027280003F00F03043B3A68D2B21201D2B20B4451
:102738001A7609E0084997F907303A68D2B21201C7
:10274800D2B20B4483F8002300BF0C37BD4680BCCF
:10275800704700BF00ED00E000E100E080B489B000
:1027680000AFF860B9607A60FB6803F00703FB61AB
:10277800FB69C3F10703042B28BF0423BB61FB6972
:102788000433062B02D9FB69033B00E000237B617D
:102798000122BB6902FA03F35A1EBB681A407B691F
:1027A8009A4001217B6901FA03F3591E7B680B40AB
:1027B800134318462437BD4680BC704780B582B0A5
:1027C80000AF78607B68013BB3F1807F01D30123C0
:1027D8000FE00A4A7B68013B53600F214FF0FF303E
:1027E800FFF792FF054B00229A60044B07221A60FC
:1027F800002318460837BD4680BD00BF10E000E042
:1028080080B582B000AF78607868FFF733FF00BF0B
:102818000837BD4680BD80B586B000AF0346B960B5
:102828007A60FB7300237B61FFF748FF78617A6861
:10283800B9687869FFF792FF024697F90F30114699
:102848001846FFF761FF00BF1837BD4680BD80B549
:1028580082B000AF0346FB7197F907301846FFF7BF
:102868003BFF00BF0837BD4680BD80B582B000AFD2
:1028780078607868FFF7A2FF034618460837BD4618
:1028880080BD000080B485B000AF78600023FB6095
:102898007B68002B01D1012359E07B681B681A462D
:1028A8002D4B9A420FD87B681B681A462B4B134452
:1028B8002B4AA2FB03231B099A007B681A647B68D6
:1028C800284ADA630EE07B681B681A46264B1344D5
:1028D800234AA2FB03231B099A007B681A647B68BE
:1028E800224ADA637B68022283F821207B681B680E
:1028F8001B68FB60FB6823F47F5323F03003FB6005
:102908007B685A687B689B681A437B68DB681A4354
:102918007B681B691A437B685B691A437B689B6900
:102928001A437B68DB691343FA681343FB607B68CF
:102938001B68FA681A607B6800229A637B68012228
:1029480083F821207B68002283F820200023184682
:102958001437BD4680BC704707040240F8FFFDBF2E
:10296800CDCCCCCC00000240F8FBFDBF00040240F7
:1029780080B586B000AFF860B9607A603B6000232C
:10298800FB75FB6893F82030012B01D102234AE044
:10299800FB68012283F82020FB6893F82130012B83
:1029A8003AD1FB68022283F82120FB6800229A634F
:1029B800FB681B68FA681268126822F001021A6044
:1029C8003B687A68B968F86800F0E4FBFB68DB6A82
:1029D800002B08D0FB681B68FA681268126842F07E
:1029E8000E021A600FE0FB681B68FA68126812682A
:1029F80022F004021A60FB681B68FA681268126801
:102A080042F00A021A60FB681B68FA6812681268CA
:102A180042F001021A6005E0FB68002283F82020DA
:102A28000223FB75FB7D18461837BD4680BD80B470
:102A380085B000AF78600023FB737B681B687A68F9
:102A48001268126822F00E021A607B681B687A68A6
:102A58001268126822F001021A607B68DB6B7A68E0
:102A6800126C012101FA02F25A607B68012283F894
:102A780021207B68002283F82020FB7B184614372E
:102A8800BD4680BC7047000080B584B000AF786058
:102A98000023FB737B6893F82130022B05D07B68F9
:102AA80004229A630123FB73ECE07B681B687A6855
:102AB8001268126822F00E021A607B681B687A6836
:102AC8001268126822F001021A607B681B681A46B5
:102AD8006F4B9A4263D96F4A7B681B6819466E4BE5
:102AE800994259D07B681B6819466C4B994251D062
:102AF8007B681B6819466A4B994248D07B681B68FB
:102B08001946684B99423FD07B681B681946664B4B
:102B1800994236D07B681B681946644B99422DD080
:102B28007B681B6819465A4B994224D07B681B68FE
:102B380019465F4B99421CD07B681B6819465D4B50
:102B4800994214D07B681B6819465B4B99420BD09D
:102B58007B681B681946594B994202D14FF4805340
:102B68001BE04FF4803318E04FF4807315E0102316
:102B780013E0012311E04FF080730EE04FF480134F
:102B88000BE04FF4803308E04FF4805305E04FF436
:102B9800807302E0102300E00123536062E0484A9A
:102BA8007B681B6819463C4B994259D07B681B6867
:102BB80019463A4B994251D07B681B681946384BE5
:102BC800994248D07B681B681946364B99423FD0DA
:102BD8007B681B681946344B994236D07B681B6862
:102BE8001946324B99422DD07B681B681946284BF1
:102BF800994224D07B681B6819462D4B99421CD0FA
:102C08007B681B6819462B4B994214D07B681B685C
:102C18001946294B99420BD07B681B681946274BEC
:102C2800994202D14FF480531BE04FF4803318E0EF
:102C38004FF4807315E0102313E0012311E04FF0E7
:102C480080730EE04FF480130BE04FF4803308E0FC
:102C58004FF4805305E04FF4807302E0102300E046
:102C6800012353607B68012283F821207B680022BE
:102C780083F820207B685B6B002B03D07B685B6B41
:102C880078689847FB7B18461037BD4680BD00BF63
:102C98008000024000040240080002401C0002407C
:102CA8003000024044000240580002406C000240DC
:102CB800080402401C04024030040240440402405C
:102CC8000000024080B584B000AF78607B68DB6BA1
:102CD8001B68FB607B681B681B68BB607B681B6CA0
:102CE80004229A40FB681340002B00F00781BB6860
:102CF80003F00403002B00F001817B681B681B684C
:102D080003F02003002B07D17B681B687A681268E0
:102D1800126822F004021A607B681B681A466A4B24
:102D28009A4263D9694A7B681B681946684B99427D
:102D380059D07B681B681946664B994251D07B680D
:102D48001B681946644B994248D07B681B68194632
:102D5800624B99423FD07B681B681946604B994289
:102D680036D07B681B6819465E4B99422DD07B682C
:102D78001B681946544B994224D07B681B68194636
:102D8800594B99421CD07B681B681946574B99428E
:102D980014D07B681B681946554B99420BD07B6849
:102DA8001B681946534B994202D14FF480431BE0EC
:102DB8004FF4802318E04FF4806315E0402313E0BC
:102DC800042311E04FF080630EE04FF480030BE022
:102DD8004FF4802308E04FF4804305E04FF480630C
:102DE80002E0402300E00423536062E0424A7B682B
:102DF8001B681946364B994259D07B681B6819469F
:102E0800344B994251D07B681B681946324B994222
:102E180048D07B681B681946304B99423FD07B6885
:102E28001B6819462E4B994236D07B681B68194699
:102E38002C4B99422DD07B681B681946224B99422E
:102E480024D07B681B681946274B99421CD07B68A5
:102E58001B681946254B994214D07B681B68194694
:102E6800234B99420BD07B681B681946214B99422A
:102E780002D14FF480431BE04FF4802318E04FF455
:102E8800806315E0402313E0042311E04FF08063D2
:102E98000EE04FF480030BE04FF4802308E04FF47A
:102EA800804305E04FF4806302E0402300E0042300
:102EB80053607B68DB6A002B00F04C817B68DB6A1F
:102EC8007868984746E100BF80000240000402404D
:102ED800080002401C00024030000240440002404A
:102EE800580002406C000240080402401C040240E2
:102EF8003004024044040240000002407B681B6C1E
:102F080002229A40FB681340002B00F0F380BB6854
:102F180003F00203002B00F0ED807B681B681B6840
:102F280003F02003002B0BD17B681B687A681268BA
:102F3800126822F00A021A607B68012283F82120B5
:102F48007B681B681A46864B9A4263D9854A7B6818
:102F58001B681946844B994259D07B681B681946EF
:102F6800824B994251D07B681B681946804B994225
:102F780048D07B681B6819467E4B99423FD07B68D6
:102F88001B6819467C4B994236D07B681B681946EA
:102F98007A4B99422DD07B681B681946704B994231
:102FA80024D07B681B681946754B99421CD07B68F6
:102FB8001B681946734B994214D07B681B681946E5
:102FC800714B99420BD07B681B6819466F4B99422D
:102FD80002D14FF400531BE04FF4003318E04FF4D4
:102FE800007315E0202313E0022311E04FF0007373
:102FF8000EE04FF400130BE04FF4003308E04FF4F9
:10300800005305E04FF4007302E0202300E00223A0
:10301800536062E05E4A7B681B681946524B9942CE
:1030280059D07B681B681946504B994251D07B6830
:103038001B6819464E4B994248D07B681B68194655
:103048004C4B99423FD07B681B6819464A4B9942C2
:1030580036D07B681B681946484B99422DD07B684F
:103068001B6819463E4B994224D07B681B68194659
:10307800434B99421CD07B681B681946414B9942C7
:1030880014D07B681B6819463F4B99420BD07B686C
:103098001B6819463D4B994202D14FF400531BE07F
:1030A8004FF4003318E04FF4007315E0202313E0C9
:1030B800022311E04FF000730EE04FF400130BE011
:1030C8004FF4003308E04FF4005305E04FF4007369
:1030D80002E0202300E0022353607B68002283F88B
:1030E80020207B689B6A002B34D07B689B6A7868B9
:1030F80098472FE07B681B6C08229A40FB681340B6
:10310800002B28D0BB6803F00803002B23D07B6872
:103118001B687A681268126822F00E021A607B68CF
:10312800DB6B7A68126C012101FA02F25A607B6843
:1031380001229A637B68012283F821207B680022A0
:1031480083F820207B681B6B002B04D07B681B6BEB
:103158007868984700BF00BF1037BD4680BD00BFE4
:103168008000024000040240080002401C000240A7
:103178003000024044000240580002406C00024007
:10318800080402401C040240300402404404024087
:103198000000024080B485B000AFF860B9607A6082
:1031A8003B60FB68DB6BFA68126C012101FA02F2E2
:1031B8005A60FB681B683A685A60FB685B68102BAA
:1031C80008D1FB681B687A689A60FB681B68BA6854
:1031D800DA6007E0FB681B68BA689A60FB681B68DE
:1031E8007A68DA6000BF1437BD4680BC70470000BB
:1031F80080B48BB000AF786039600023FB61002396
:10320800BB6100237B6100233B6200233B610023F9
:103218007B6233E101227B6A02FA03F3FB613B68BC
:103228001A68FB691340BB61BA69FB699A4240F0AE
:1032380022813B685B68122B34D0122B0DD8022BED
:103248002BD0022B04D8002B31D0012B1CD048E006
:10325800032B43D0112B1BD043E08D4A934226D039
:103268008B4A934206D88B4A934220D08A4A93428B
:103278001DD036E0894A934219D0894A934216D024
:10328800884A934213D02CE03B68DB683B6228E015
:103298003B68DB6804333B6223E03B68DB68083348
:1032A8003B621EE03B68DB680C333B6219E03B681D
:1032B8009B68002B02D104233B6212E03B689B68A9
:1032C800012B05D108233B627B68FA691A6108E083
:1032D80008233B627B68FA695A6102E000233B627B
:1032E80000BFBB69FF2B01D87B6801E07B68043312
:1032F800FB60BB69FF2B02D87B6A9B0002E07B6AFC
:10330800083B9B003B61FB681A680F213B6901FA87
:1033180003F3DB431A40396A3B6901FA03F31A43A2
:10332800FB681A603B685B6803F08053002B00F071
:10333800A2805D4A5C4B9B6943F0010393615A4B41
:103348009B6903F00103BB60BB68584A7B6A9B0812
:10335800023352F823307B617B6A03F003039B003E
:103368000F2202FA03F3DB437A6913407B617B681F
:103378004F4A93421FD07B684E4A934219D07B68CC
:103388004D4A934213D07B684C4A93420DD07B68D8
:103398004B4A934207D07B684A4A934201D105239E
:1033A8000AE0062308E0042306E0032304E00223DE
:1033B80002E0012300E000237A6A02F0030292008F
:1033C80093407A6913437B6138497B6A9B080233CF
:1033D8007A6941F823203B685B6803F48033002B4B
:1033E80006D03949384B1A68BB6913430B6006E0AD
:1033F8003549354B1A68BB69DB4313400B603B68A2
:103408005B6803F40033002B06D02F492E4B5A6813
:10341800BB6913434B6006E02B492B4B5A68BB69C9
:10342800DB4313404B603B685B6803F48013002B5D
:1034380006D02549244B9A68BB6913438B6006E084
:103448002149214B9A68BB69DB4313408B603B6879
:103458005B6803F40013002B06D01B491A4BDA688B
:10346800BB691343CB6006E01749174BDA68BB69A1
:10347800DB431340CB607B6A01337B627B6A0F2B93
:103488007FF6C8AE00BF2C37BD4680BC704700BF72
:10349800000021100000111000001210000031106F
:1034A800000032100000221000100240000001400D
:1034B80000080140000C01400010014000140140C8
:1034C80000180140001C01400004014080B485B090
:1034D80000AF78600B467B807B689A687B881340D6
:1034E800002B02D00123FB7301E00023FB73FB7B5D
:1034F80018461437BD4680BC704780B483B000AF0F
:1035080078600B467B8013467B707B78002B03D05A
:103518007A887B681A6103E07B881A047B681A61E1
:1035280000BF0C37BD4680BC704780B483B000AF85
:1035380078600B467B807B68DA687B885A407B68BA
:10354800DA6000BF0C37BD4680BC704780B584B0D8
:1035580000AF78600023FB600023BB607B68002B12
:1035680001D10123E7E07B6893F83D30DBB2002B03
:1035780006D17B68002283F83C20786805F082FE3B
:103588007B68242283F83D207B681B687A68126870
:10359800126822F001021A6001F0F4FAB8607B6840
:1035A8005B68674A934207D8BB68664A934294BFF0
:1035B80001230023DBB206E0BB68634A934294BF51
:1035C80001230023DBB2002B01D00123B3E0BB6849
:1035D8005E4AA2FB03239B0CFB607B681B68FA68AE
:1035E8005A607B681A687B685B6855498B4202D8C9
:1035F800FB68013309E0FB684FF4967101FB03F3A4
:103608005349A1FB03139B09013313627B681968B3
:103618007B685B684A4A93420DD8BB685A1E7B6830
:103628005B685B00B2FBF3F30133C3F30B03042BBA
:1036380038BF04234FE07B689B68002B11D1BB681F
:10364800581E7B685A6813465B001344B0FBF3F3BB
:103658000133C3F30B03002B0CBF01230023DBB2A0
:1036680012E0BB68581E7B685A6813469B001344D7
:103678009A001344B0FBF3F30133C3F30B03002B9D
:103688000CBF01230023DBB2002B01D0012322E071
:103698007B689B68002B0ED1BB68581E7B685A68F4
:1036A80013465B001344B0FBF3F30133C3F30B037E
:1036B80043F400430FE0BB68581E7B685A68134602
:1036C8009B0013449A001344B0FBF3F30133C3F394
:1036D8000B0343F44043CB617B681B687A68D1696C
:1036E8007A68126A0A431A607B681B687A681169EB
:1036F8007A68D2680A439A607B681B687A6851695D
:103708007A6892690A43DA607B681B687A6812688B
:10371800126842F001021A607B6800221A647B6812
:10372800202283F83D207B6800221A637B680022F0
:1037380083F83E20002318461037BD4680BD00BFE1
:10374800A08601007F841E00FF083D0083DE1B4326
:10375800D34D621080B588B002AFF8607A601A461F
:103768000B467B8113463B8100237B61FDF7ACFD53
:103778007861FB6893F83D30DBB2202B40F0EE8097
:103788007B690093192301227749F86800F074FCDB
:103798000346002B01D00223E1E0FB6893F83C309C
:1037A800012B01D10223DAE0FB68012283F83C20D7
:1037B800FB681B681B6803F00103012B07D0FB683B
:1037C8001B68FA681268126842F001021A60FB6806
:1037D8001B68FA681268126822F400621A60FB68B3
:1037E800212283F83D20FB68102283F83E20FB68E5
:1037F80000221A64FB687A685A62FB683A895A851B
:10380800FB685A4ADA62FB685B8D9AB2FB681A85D4
:1038180079897B693A6AF86800F0E4FA0346002B74
:103828000FD0FB681B6C042B05D1FB68002283F8C2
:103838003C20012393E0FB68002283F83C2003230B
:103848008DE000233B61FB681B685B693B61FB689B
:103858001B689B693B613B6966E07A69396AF8686D
:1038680000F0C9FC0346002B0FD0FB681B6C042B2F
:1038780009D1FB681B68FA681268126842F4007282
:103888001A6001236BE0032369E0FB681A68FB6890
:103898005B6A581CF96848621B781361FB685B8D8A
:1038A8009BB2013B9AB2FB685A85FB681B8D013BB2
:1038B8009AB2FB681A85FB681B685B6903F004030E
:1038C800042B19D1FB681B8D002B15D0FB681A68D7
:1038D800FB685B6A581CF96848621B781361FB68CF
:1038E8005B8D9BB2013B9AB2FB685A85FB681B8DC6
:1038F800013B9AB2FB681A857A69396AF86800F060
:10390800B7FC0346002B0FD0FB681B6C042B09D1B6
:10391800FB681B68FA681268126842F400721A6041
:1039280001231CE003231AE0FB681B8D002B94D1B4
:10393800FB681B68FA681268126842F400721A6021
:10394800FB68202283F83D20FB68002283F83E2094
:10395800FB68002283F83C20002300E0022318467D
:103968001837BD4680BD00BF020010000000FFFFF1
:1039780080B58CB002AFF8607A601A460B467B813E
:1039880013463B8100237B62FDF79EFC7862FB684F
:1039980093F83D30DBB2202B40F01D827B6A009308
:1039A800192301228749F86800F066FB0346002BBB
:1039B80001D0022310E2FB6893F83C30012B01D1BF
:1039C800022309E2FB68012283F83C20FB681B689C
:1039D8001B6803F00103012B07D0FB681B68FA681A
:1039E8001268126842F001021A60FB681B68FA68E4
:1039F8001268126822F400621A60FB68222283F8B7
:103A08003D20FB68102283F83E20FB6800221A64E0
:103A1800FB687A685A62FB683A895A85FB686A4A81
:103A2800DA62FB685B8D9AB2FB681A8579897B6AD2
:103A38003A6BF86800F058FA0346002B0FD0FB6881
:103A48001B6C042B05D1FB68002283F83C20012362
:103A5800C2E1FB68002283F83C200323BCE1FB6839
:103A68001B8D002B13D100233B62FB681B685B692D
:103A78003B62FB681B689B693B623B6AFB681B688F
:103A8800FA681268126842F400721A6090E1FB68E2
:103A98001B8D012B1DD1FB681B68FA681268126820
:103AA80022F480621A6072B60023FB61FB681B680F
:103AB8005B69FB61FB681B689B69FB61FB69FB68D1
:103AC8001B68FA681268126842F400721A6062B6DB
:103AD8006EE1FB681B8D022B1DD1FB681B68FA6821
:103AE8001268126842F400621A6072B60023BB6161
:103AF800FB681B685B69BB61FB681B689B69BB61F2
:103B0800BB69FB681B68FA681268126822F4806255
:103B18001A6062B64CE1FB681B68FA6812681268A2
:103B280042F480621A6000237B61FB681B685B6952
:103B38007B61FB681B689B697B617B6938E1FB687B
:103B48001B8D032B00F2EF80FB681B8D012B27D107
:103B58007A6A396BF86800F0C8FB0346002B07D077
:103B6800FB681B6C202B01D1032335E1012333E1D2
:103B7800FB685B6A591CFA685162FA681268126934
:103B8800D2B21A70FB681B8D013B9AB2FB681A858A
:103B9800FB685B8D9BB2013B9AB2FB685A8507E1D3
:103BA800FB681B8D022B4CD17B6A00933B6B002278
:103BB8000649F86800F060FA0346002B08D0032392
:103BC8000AE100BF020010000000FFFF040001002E
:103BD80072B6FB681B68FA681268126842F40072D1
:103BE8001A60FB685B6A591CFA685162FA681268C5
:103BF8001269D2B21A70FB681B8D013B9AB2FB683E
:103C08001A85FB685B8D9BB2013B9AB2FB685A85AB
:103C180062B6FB685B6A591CFA685162FA681268F6
:103C28001269D2B21A70FB681B8D013B9AB2FB680D
:103C38001A85FB685B8D9BB2013B9AB2FB685A857B
:103C4800B6E07B6A00933B6B00226549F86800F098
:103C580013FA0346002B01D00323BDE0FB681B6861
:103C6800FA681268126822F480621A6072B6FB68F9
:103C78005B6A591CFA685162FA6812681269D2B212
:103C88001A70FB681B8D013B9AB2FB681A85FB68AA
:103C98005B8D9BB2013B9AB2FB685A857B6A0093A5
:103CA8003B6B00224E49F86800F0E6F90346002B0A
:103CB80001D0032390E0FB681B68FA681268126859
:103CC80042F400721A60FB685B6A591CFA68516218
:103CD800FA6812681269D2B21A70FB681B8D013B30
:103CE8009AB2FB681A85FB685B8D9BB2013B9AB25E
:103CF800FB685A8562B6FB685B6A591CFA685162B0
:103D0800FA6812681269D2B21A70FB681B8D013BFF
:103D18009AB2FB681A85FB685B8D9BB2013B9AB22D
:103D2800FB685A8544E07A6A396BF86800F0DDFA76
:103D38000346002B07D0FB681B6C202B01D1032303
:103D48004AE0012348E0FB685B6A591CFA68516243
:103D5800FA6812681269D2B21A70FB681B8D013BAF
:103D68009AB2FB681A85FB685B8D9BB2013B9AB2DD
:103D7800FB685A85FB681B685B6903F00403042B26
:103D880016D1FB685B6A591CFA685162FA681268B6
:103D98001269D2B21A70FB681B8D013B9AB2FB689C
:103DA8001A85FB685B8D9BB2013B9AB2FB685A850A
:103DB800FB681B8D002B7FF4C2AEFB68202283F8C2
:103DC8003D20FB68002283F83E20FB68002283F830
:103DD8003C20002300E0022318462837BD4680BD5A
:103DE8000400010080B588B002AFF8607A603B60DB
:103DF8000B467B81FB68DB6A7B617B69042B06D001
:103E08007B69012B03D07B6913F5803F08D1FB68E0
:103E18001B68FA681268126842F480721A600BE034
:103E2800FB681B6B122B07D1FB681B68FA681268CA
:103E3800126842F480721A603B6800937B68002223
:103E48004FF00111F86800F017F90346002B01D074
:103E5800032340E0FB681B69B3F5804F07D1FB687B
:103E68001B687A89D2B202F0FE021A6121E0FB686F
:103E78001B687A89D211D2B202F00602D2B262F07D
:103E88000F02D2B21A613B687A681549F86800F0E7
:103E980044F90346002B07D0FB681B6C042B01D1A7
:103EA800012318E0032316E0FB681B687A89D2B265
:103EB8001A613B687A680B49F86800F02EF90346E6
:103EC800002B07D0FB681B6C042B01D1012302E0F7
:103ED800032300E0002318461837BD4680BD00BF05
:103EE800080001000200010080B588B002AFF86048
:103EF8007A603B600B467B81FB68DB6A7B61FB6811
:103F08001B68FA681268126842F480621A607B695A
:103F1800042B06D07B69012B03D07B6913F5803F06
:103F280008D1FB681B68FA681268126842F480724C
:103F38001A600BE0FB681B6B112B07D1FB681B6831
:103F4800FA681268126842F480721A603B6800933B
:103F58007B6800224FF00111F86800F08DF80346E5
:103F6800002B01D003237FE0FB681B69B3F5804F6A
:103F780008D1FB681B687A89D2B242F00102D2B23A
:103F88001A615FE0FB681B687A89D211D2B202F02D
:103F98000602D2B262F00F02D2B21A613B687A68A6
:103FA8003349F86800F0B9F80346002B07D0FB68DE
:103FB8001B6C042B01D1012356E0032354E0FB685A
:103FC8001B687A89D2B21A613B687A682949F8680D
:103FD80000F0A3F80346002B07D0FB681B6C042BEA
:103FE80001D1012340E003233EE000233B61FB684D
:103FF8001B685B693B61FB681B689B693B613B69AC
:10400800FB681B68FA681268126842F480721A60CA
:104018003B6800937B6800224FF00111F86800F0BC
:104028002BF80346002B01D003231DE0FB681B6817
:104038007A89D211D2B202F00602D2B262F00E022E
:10404800D2B21A613B687A680A49F86800F065F8E4
:104058000346002B07D0FB681B6C042B01D10123FE
:1040680002E0032300E0002318461837BD4680BD50
:10407800080001000200010080B584B000AFF860BC
:10408800B9603B601346FB711FE03B68B3F1FF3F2B
:104098001BD03B68002B07D0FDF716F90246BB6919
:1040A800D21A3B689A4210D9FB6800221A63FB684F
:1040B800202283F83D20FB68002283F83E20FB681D
:1040C800002283F83C20032323E0BB681B0CDBB2EF
:1040D800012B0DD1FB681B685B69DA43BB68134091
:1040E8009BB2002B0CBF01230023DBB21A460CE065
:1040F800FB681B689B69DA43BB6813409BB2002BC3
:104108000CBF01230023DBB21A46FB799A42BCD0CC
:10411800002318461037BD4680BD80B584B000AF77
:10412800F860B9607A603B6040E0FB681B685B69D7
:1041380003F48063B3F5806F1CD1FB681B68FA68D1
:104148001268126842F400721A60FB681B686FF408
:1041580080625A61FB6804221A64FB6800221A63B1
:10416800FB68202283F83D20FB68002283F83C206E
:1041780001233CE07B68B3F1FF3F17D07B68002B3D
:1041880007D0FDF7A1F802463B68D21A7B689A422D
:104198000CD9FB6800221A63FB68202283F83D20B3
:1041A800FB68002283F83C20032320E0BB681B0C3B
:1041B800DBB2012B0CD1FB681B685B69DA43BB6877
:1041C80013409BB2002B14BF01230023DBB20BE08A
:1041D800FB681B689B69DA43BB6813409BB2002BE2
:1041E80014BF01230023DBB2002B9ED10023184605
:1041F8001037BD4680BD80B584B000AFF860B960A7
:104208007A6029E0F86800F0BAF80346002B01D07C
:10421800012329E0BB68B3F1FF3F1DD0BB68002B29
:1042280007D0FDF751F802467B68D21ABB689A425C
:1042380012D9FB681B6C43F02002FB681A64FB6808
:1042480000221A63FB68202283F83D20FB680022C5
:1042580083F83C20032307E0FB681B685B6903F0D5
:104268008003802BCED1002318461037BD4680BD71
:1042780080B584B000AFF860B9607A6029E0F8686A
:1042880000F07DF80346002B01D0012329E0BB682C
:10429800B3F1FF3F1DD0BB68002B07D0FDF714F822
:1042A80002467B68D21ABB689A4212D9FB681B6C1B
:1042B80043F02002FB681A64FB6800221A63FB685B
:1042C800202283F83D20FB68002283F83C2003234A
:1042D80007E0FB681B685B6903F00403042BCED17D
:1042E800002318461037BD4680BD80B584B000AFA6
:1042F800F860B9607A6036E0FB681B685B6903F0B8
:104308001003102B14D1FB681B686FF010025A6160
:10431800FB6800221A64FB6800221A63FB682022EB
:1043280083F83D20FB68002283F83C20012322E02B
:10433800BB68002B07D0FCF7C7FF02467B68D21A80
:10434800BB689A420FD9FB681B6C43F02002FB68DC
:104358001A64FB68202283F83D20FB68002283F85A
:104368003C20032307E0FB681B685B6903F04003FC
:10437800402BC1D1002318461037BD4680BD80B4FC
:1043880083B000AF78607B681B685B6903F4806367
:10439800B3F5806F14D17B681B686FF480625A6133
:1043A8007B6804221A647B6800221A637B682022D7
:1043B80083F83D207B68002283F83C20012300E03D
:1043C800002318460C37BD4680BC704780B586B0C0
:1043D80000AF786000233B617B681B6803F0010332
:1043E800002B00F08780924B5B6803F00C03042BD2
:1043F8000CD08F4B5B6803F00C03082B12D18C4B4D
:104408005B6803F48033B3F5803F0BD1884B1B689E
:1044180003F40033002B6CD07B685B68002B68D1F9
:1044280001232DE27B685B68B3F5803F06D1804AA3
:104438007F4B1B6843F4803313602EE07B685B6816
:10444800002B0CD17A4A7A4B1B6823F48033136013
:10445800774A774B1B6823F4802313601DE07B6841
:104468005B68B3F5A02F0CD1714A714B1B6843F4FC
:10447800802313606E4A6E4B1B6843F480331360CD
:104488000BE06B4A6A4B1B6823F480331360684A5D
:10449800674B1B6823F4802313607B685B68002BE1
:1044A80013D0FCF711FF386108E0FCF70DFF024656
:1044B8003B69D31A642B01D90323E1E15C4B1B68E8
:1044C80003F40033002BF0D014E0FCF7FDFE386154
:1044D80008E0FCF7F9FE02463B69D31A642B01D9C0
:1044E8000323CDE1524B1B6803F40033002BF0D1BA
:1044F80000E000BF7B681B6803F00203002B63D059
:104508004B4B5B6803F00C03002B0BD0484B5B68EC
:1045180003F00C03082B1CD1454B5B6803F4803374
:10452800002B16D1424B1B6803F00203002B05D069
:104538007B681B69012B01D00123A1E13C493C4B5D
:104548001B6823F0F8027B685B69DB0013430B6090
:104558003AE07B681B69002B20D0364B01221A6099
:10456800FCF7B2FE386108E0FCF7AEFE02463B6994
:10457800D31A022B01D9032382E12D4B1B6803F0C8
:104588000203002BF0D02A49294B1B6823F0F802BC
:104598007B685B69DB0013430B6015E0254B002249
:1045A8001A60FCF791FE386108E0FCF78DFE0246C0
:1045B8003B69D31A022B01D9032361E11C4B1B6809
:1045C80003F00203002BF0D17B681B6803F008039B
:1045D800002B39D07B689B69002B19D0164B012220
:1045E8001A60FCF771FE386108E0FCF76DFE0246C0
:1045F8003B69D31A022B01D9032341E10C4B5B6AB7
:1046080003F00203002BF0D0012000F0E3FA1BE0D6
:10461800094B00221A60FCF757FE38610EE0FCF7E0
:1046280053FE02463B69D31A022B07D9032327E11D
:10463800001002400000424280044242924B5B6AF2
:1046480003F00203002BEAD17B681B6803F0040324
:10465800002B00F0A6800023FB758B4BDB6903F071
:104668008053002B0DD1884A874BDB6943F0805378
:10467800D361854BDB6903F08053FB60FB68012342
:10468800FB75824B1B6803F48073002B18D17F4A9B
:104698007E4B1B6843F480731360FCF715FE38618A
:1046A80008E0FCF711FE02463B69D31A642B01D9D6
:1046B8000323E5E0754B1B6803F48073002BF0D0EF
:1046C8007B68DB68012B06D16F4A6F4B1B6A43F08E
:1046D800010313622DE07B68DB68002B0CD16A4A6A
:1046E800694B1B6A23F001031362674A664B1B6A16
:1046F80023F0040313621CE07B68DB68052B0CD1F4
:10470800614A614B1B6A43F0040313625E4A5E4BC5
:104718001B6A43F0010313620BE05B4A5A4B1B6AA6
:1047280023F001031362584A574B1B6A23F0040312
:1047380013627B68DB68002B15D0FCF7C5FD386178
:104748000AE0FCF7C1FD02463B69D31A41F2883200
:10475800934201D9032393E04B4B1B6A03F00203F6
:10476800002BEED014E0FCF7AFFD38610AE0FCF74F
:10477800ABFD02463B69D31A41F28832934201D914
:1047880003237DE0404B1B6A03F00203002BEED1AC
:10479800FB7D012B05D13C4A3B4BDB6923F0805361
:1047A800D3617B68DB69002B69D0374B5B6803F00A
:1047B8000C03082B61D07B68DB69022B46D1344B94
:1047C80000221A60FCF780FD386108E0FCF77CFDE8
:1047D80002463B69D31A022B01D9032350E02A4B26
:1047E8001B6803F00073002BF0D17B681B6AB3F5DC
:1047F800803F08D12449244B5B6823F400327B684E
:104808009B6813434B6020481F4B5B6823F474126A
:104818007B68196A7B685B6A0B43134343601C4BD4
:1048280001221A60FCF750FD386108E0FCF74CFDE6
:1048380002463B69D31A022B01D9032320E0124B0D
:104848001B6803F00073002BF0D018E0104B002217
:104858001A60FCF739FD386108E0FCF735FD0246BF
:104868003B69D31A022B01D9032309E0064B1B68C5
:1048780003F00073002BF0D101E0012300E00023D6
:1048880018461837BD4680BD001002400070004031
:104898006000424280B584B000AF78603960002380
:1048A800FB607E4B1B6803F007023B689A4210D2FC
:1048B8007A497A4B1B6823F007023B6813430B6065
:1048C800764B1B6803F007023B689A4201D001232C
:1048D800E0E07B681B6803F00203002B20D07B68B4
:1048E8001B6803F00403002B05D06D4A6C4B5B6812
:1048F80043F4E06353607B681B6803F00803002BF4
:1049080005D0674A664B5B6843F46053536064495B
:10491800634B5B6823F0F0027B689B6813434B6032
:104928007B681B6803F00103002B6AD07B685B6817
:10493800012B07D15A4B1B6803F40033002B15D108
:104948000123A7E07B685B68022B07D1544B1B68E7
:1049580003F00073002B09D101239BE0504B1B6827
:1049680003F00203002B01D1012393E04C494C4B87
:104978005B6823F003027B685B6813434B60FCF7BA
:10498800A3FCF8607B685B68012B12D10AE0FCF796
:104998009BFC0246FB68D31A41F28832934201D944
:1049A800032377E03E4B5B6803F00C03042BEED146
:1049B80027E07B685B68022B1DD10AE0FCF784FCCA
:1049C8000246FB68D31A41F28832934201D9032385
:1049D80060E0334B5B6803F00C03082BEED110E06A
:1049E800FCF772FC0246FB68D31A41F28832934204
:1049F80001D903234EE02A4B5B6803F00C03002B1C
:104A0800EED1264B1B6803F007023B689A4210D987
:104A18002249224B1B6823F007023B6813430B60B3
:104A28001E4B1B6803F007023B689A4201D0012322
:104A380030E07B681B6803F00403002B08D018499A
:104A4800174B5B6823F4E0627B68DB6813434B60B9
:104A58007B681B6803F00803002B09D01049104B32
:104A68005B6823F460527B681B69DB0013434B606F
:104A780000F01CF801460A4B5B681B0903F00F03A2
:104A8800084AD35C21FA03F3074A13600020FCF7B5
:104A9800D9FB002318461037BD4680BD00200240D0
:104AA80000100240D8D900088400002090B48AB0D1
:104AB80000AF2A4B3C1D0FCB84E80F00284B1B8806
:104AC8003B800023FB610023BB6100237B62002342
:104AD8007B6100233B62234B5B68FB61FB6903F04E
:104AE8000C03042B02D0082B03D02DE01E4B3B6295
:104AF8002DE0FB699B0C03F00F0307F12802134418
:104B080013F8243C7B61FB6903F48033002B13D03A
:104B1800144B5B685B0C03F0010307F12802134494
:104B280013F8283CBB617B690F4A02FB03F2BB699F
:104B3800B2FBF3F37B6204E07B690C4A02FB03F3EC
:104B48007B627B6A3B6202E0074B3B6200BF3B6AC9
:104B580018462837BD4690BC704700BFB0CC000847
:104B6800C0CC00080010024000127A0000093D0085
:104B780080B400AF024B1B681846BD4680BC704726
:104B88008400002080B500AFFFF7F2FF0146054B17
:104B98005B681B0A03F00703034AD35C21FA03F39B
:104BA800184680BD00100240E8D9000880B500AF63
:104BB800FFF7DEFF0146054B5B68DB0A03F00703DE
:104BC800034AD35C21FA03F3184680BD0010024063
:104BD800E8D9000880B485B000AF78600A4B1B683C
:104BE8000A4AA2FB03235B0A7A6802FB03F3FB6011
:104BF80000BFFB685A1EFA60002BF9D100BF1437BA
:104C0800BD4680BC704700BF84000020D34D6210B1
:104C180080B586B000AF786000233B610023FB605D
:104C28007B681B6803F00103002B7DD00023FB7514
:104C38004F4BDB6903F08053002B0DD14C4A4C4B92
:104C4800DB6943F08053D361494BDB6903F0805340
:104C5800BB60BB680123FB75464B1B6803F480737C
:104C6800002B18D1434A434B1B6843F480731360ED
:104C7800FCF72AFB386108E0FCF726FB02463B6993
:104C8800D31A642B01D903236DE03A4B1B6803F454
:104C98008073002BF0D0364B1B6A03F44073FB6023
:104CA800FB68002B2ED07B685B6803F44072FB68BE
:104CB8009A4227D02E4B1B6A23F44073FB602E4B7D
:104CC80001221A602C4B00221A60294AFB681362E1
:104CD800FB6803F00103002B14D0FCF7F5FA3861E8
:104CE8000AE0FCF7F1FA02463B69D31A41F288322E
:104CF800934201D9032336E01D4B1B6A03F00203DC
:104D0800002BEED01A491A4B1B6A23F440727B68B9
:104D18005B6813430B62FB7D012B05D1144A144BCE
:104D2800DB6923F08053D3617B681B6803F00203BF
:104D3800002B08D00E490E4B5B6823F440427B6879
:104D48009B6813434B607B681B6803F01003002BC0
:104D580008D00749064B5B6823F480027B685B69CF
:104D680013434B60002318461837BD4680BD00BF6B
:104D780000100240007000404004424290B58DB0DF
:104D880000AF78606C4B07F10C040FCB84E80F0080
:104D98006A4B1B883B8100237B620023FB62002354
:104DA8003B620023FB610023BB627B68013B0F2B46
:104DB80000F2B98001A252F823F000BFA74E000804
:104DC800134F00082F4F0008974E00082F4F000878
:104DD8002F4F00082F4F00089F4E00082F4F000844
:104DE8002F4F00082F4F00082F4F00082F4F0008A3
:104DF8002F4F00082F4F0008054E0008504B5B68E6
:104E0800FB614F4B1B6803F08073002B00F08D8013
:104E1800FB699B0C03F00F0307F13002134413F8EE
:104E2800243C3B62FB6903F48033002B18D0444BCD
:104E38005B685B0C03F0010307F13002134413F8BD
:104E4800283C7B62FB6903F48033002B0DD03D4A7C
:104E58007B6AB2FBF3F33A6A02FB03F3FB6204E0FA
:104E68003B6A394A02FB03F3FB62354B5B6803F488
:104E78008003B3F5800F02D1FB6ABB6255E0FB6A81
:104E88005B00324AA2FB03235B08BB624DE0FFF7DD
:104E98000DFEB8624AE0FFF709FEB86246E0284B0B
:104EA8001B6AFB61FB6903F44073B3F5807F08D18B
:104EB800FB6903F00203002B03D04FF40043BB62ED
:104EC80022E0FB6903F44073B3F5007F09D11C4B62
:104ED8005B6A03F00203002B03D049F64043BB6230
:104EE80012E0FB6903F44073B3F5407F09D1144B1A
:104EF8001B6803F40033002B03D04FF22443BB623A
:104F080002E00023BB6211E010E0FFF74FFE02460B
:104F18000B4B5B689B0B03F0030301335B00B2FB95
:104F2800F3F3BB6202E000BF00E000BFBB6A1846B3
:104F38003437BD4690BD00BFC4CC0008D4CC0008AF
:104F48000010024000127A0000093D00ABAAAAAA8C
:104F580080B582B000AF78607B68002B01D1012357
:104F68001DE07B6893F83D30DBB2002B06D17B68EF
:104F7800002283F83C20786804F0E0FC7B68022279
:104F880083F83D207B681A687B680433194610460D
:104F980000F02AFA7B68012283F83D200023184696
:104FA8000837BD4680BD80B483B000AF78607B68A9
:104FB8001B687A681268D26842F00102DA607B687E
:104FC8001B687A681268126842F001021A600023AE
:104FD80018460C37BD4680BC704780B582B000AF1C
:104FE80078607B681B681B6903F00203022B22D1DF
:104FF8007B681B68DB6803F00203022B1BD17B680C
:105008001B686FF002021A617B6801221A777B68BD
:105018001B689B6903F00303002B03D0786800F03A
:10502800C8F905E0786800F0BBF9786800F0CAF9BB
:105038007B6800221A777B681B681B6903F00403EE
:10504800042B22D17B681B68DB6803F00403042B64
:105058001BD17B681B686FF004021A617B6802220F
:105068001A777B681B689B6903F44073002B03D095
:10507800786800F09EF905E0786800F091F97868A2
:1050880000F0A0F97B6800221A777B681B681B690F
:1050980003F00803082B22D17B681B68DB6803F048
:1050A8000803082B1BD17B681B686FF008021A6184
:1050B8007B6804221A777B681B68DB6903F00303AB
:1050C800002B03D0786800F074F905E0786800F0E8
:1050D80067F9786800F076F97B6800221A777B68B0
:1050E8001B681B6903F01003102B22D17B681B6817
:1050F800DB6803F01003102B1BD17B681B686FF073
:1051080010021A617B6808221A777B681B68DB69C2
:1051180003F44073002B03D0786800F04AF905E0E7
:10512800786800F03DF9786800F04CF97B68002257
:105138001A777B681B681B6903F00103012B0ED1EA
:105148007B681B68DB6803F00103012B07D17B68D0
:105158001B686FF001021A61786804F043FC7B68F1
:105168001B681B6903F08003802B0ED17B681B68CA
:10517800DB6803F08003802B07D17B681B686FF026
:1051880080021A61786800F09FFA7B681B681B69C7
:1051980003F04003402B0ED17B681B68DB6803F0EB
:1051A8004003402B07D17B681B686FF040021A61EF
:1051B800786800F010F97B681B681B6903F020030E
:1051C800202B0ED17B681B68DB6803F02003202BA3
:1051D80007D17B681B686FF020021A61786800F0BD
:1051E8006AFA00BF0837BD4680BD80B584B000AFFD
:1051F800786039600023FB607B6893F83C30012BB2
:1052080001D10223C8E07B68012283F83C207B6837
:10521800022283F83D207B681B689B68FB60FB6863
:1052280023F07703FB60FB6823F47F43FB607B6814
:105238001B68FA689A603B681B68402B77D0402B44
:105248000ED8102B00F08A80102B02D8002B7ED0AD
:1052580099E0202B00F08980302B00F08D8092E0BF
:10526800702B16D0702B04D8502B40D0602B4ED00A
:1052780089E0B3F5805F03D0B3F5005F24D082E006
:105288007B681B687A681268926822F007029A6045
:1052980079E07B6818683B6899683B685A683B689E
:1052A800DB6800F0A3F97B681B689B68FB60FB6800
:1052B80023F07703FB60FB6843F07703FB607B68B0
:1052C8001B68FA689A605EE07B6818683B689968B2
:1052D8003B685A683B68DB6800F088F97B681B68A4
:1052E8007A681268926842F480429A604BE07B6860
:1052F80018683B6859683B68DB681A4600F0F2F8A2
:105308007B681B685021184600F051F93BE07B6828
:1053180018683B6859683B68DB681A4600F014F95E
:105328007B681B686021184600F041F92BE07B6818
:1053380018683B6859683B68DB681A4600F0D2F881
:105348007B681B684021184600F031F91BE07B6838
:105358001B680021184600F02AF914E07B681B68D6
:105368001021184600F023F90DE07B681B68202106
:10537800184600F01CF906E07B681B6830211846C7
:1053880000F015F900BF7B68012283F83D207B6897
:10539800002283F83C20002318461037BD4680BD04
:1053A80080B483B000AF786000BF0C37BD4680BCC6
:1053B800704780B483B000AF786000BF0C37BD463B
:1053C80080BC704780B483B000AF786000BF0C37F2
:1053D800BD4680BC704780B483B000AF786000BF22
:1053E8000C37BD4680BC704780B485B000AF78608C
:1053F80039600023FB607B681B68FB607B68344A6C
:10540800934213D07B68334A93420FD07B68B3F141
:10541800804F0BD07B68304A934207D07B682F4A75
:10542800934203D07B682E4A934208D1FB6823F04D
:105438007003FB603B685B68FA681343FB607B683A
:10544800234A934213D07B68224A93420FD07B6849
:10545800B3F1804F0BD07B681F4A934207D07B681B
:105468001E4A934203D07B681D4A934208D1FB68C9
:1054780023F44073FB603B68DB68FA681343FB6006
:10548800FB6823F08003FB603B685B69FA681343A1
:10549800FB607B68FA681A603B689A687B68DA6226
:1054A8003B681A687B689A627B68094A934203D012
:1054B8007B68084A934203D13B681A697B681A6380
:1054C8007B6801225A6100BF1437BD4680BC704713
:1054D800002C014000340140000400400008004056
:1054E800000C004080B487B000AFF860B9607A6003
:1054F80000237B6100233B61FB681B6A3B61FB68FF
:105508001B6A23F00102FB681A62FB689B697B61D6
:105518007B6923F0F0037B617B681B017A69134385
:105528007B613B6923F00A033B613A69BB6813431B
:105538003B61FB687A699A61FB683A691A6200BF45
:105548001C37BD4680BC704780B487B000AFF86098
:10555800B9607A6000237B6100233B61FB681B6AAA
:1055680023F01002FB681A62FB689B697B61FB6889
:105578001B6A3B617B6923F470437B617B681B0377
:105588007A6913437B613B6923F0A0033B61BB68E5
:105598001B013A6913433B61FB687A699A61FB68AE
:1055A8003A691A6200BF1C37BD4680BC704780B498
:1055B80085B000AF78600B467B800023FB607B687A
:1055C8009B68FB60FB6823F07003FB607B8843F0FB
:1055D80007039BB21A46FB681343FB607B68FA68B3
:1055E8009A6000BF1437BD4680BC704780B487B04E
:1055F80000AFF860B9607A603B6000237B61FB68AC
:105608009B687B617B6923F47F437B613B681A025B
:105618007B681A43BB6813437A6913437B61FB6851
:105628007A699A6000BF1C37BD4680BC704780B459
:1056380083B000AF786039607B6893F83C30012B09
:1056480001D1022332E07B68012283F83C207B6889
:10565800022283F83D207B681B687A6812685268CA
:1056680022F070025A607B681B687A681268516879
:105678003A6812680A435A607B681B687A6812683D
:10568800926822F080029A607B681B687A681268C8
:1056980091683A6852680A439A607B68012283F8E5
:1056A8003D207B68002283F83C20002318460C37F5
:1056B800BD4680BC704780B483B000AF786000BF3F
:1056C8000C37BD4680BC704780B483B000AF7860AB
:1056D80000BF0C37BD4680BC704780B582B000AFB4
:1056E80078607B68002B01D101233FE07B6893F849
:1056F8003930DBB2002B06D17B68002283F83820D2
:10570800786804F045FA7B68242283F839207B689E
:105718001B687A681268D26822F40052DA607868E6
:1057280000F072FD7B681B687A681268126922F4BF
:1057380090421A617B681B687A681268526922F085
:105748002A025A617B681B687A681268D26842F438
:105758000052DA607B680022DA637B68202283F8D3
:1057680039207B68202283F83A200023184608371E
:10577800BD4680BD80B588B002AFF860B9603B60B7
:105788001346FB8000237B61FB6893F83930DBB25A
:10579800202B40F08280BB68002B02D0FB88002BB6
:1057A80001D101237AE0FB6893F83830012B01D14D
:1057B800022373E0FB68012283F83820FB6800228B
:1057C800DA63FB68212283F83920FBF77DFD7861D5
:1057D800FB68FA889A84FB68FA88DA8441E0FB68F7
:1057E800DB8C9BB2013B9AB2FB68DA84FB689B684E
:1057F800B3F5805F21D13B6800937B69002280214B
:10580800F86800F083FB0346002B01D0032345E032
:10581800BB683B61FB681B683A691288C2F30802DF
:105828005A60FB681B69002B03D1BB680233BB605D
:1058380017E0BB680133BB6013E03B6800937B69EA
:1058480000228021F86800F061FB0346002B01D09C
:10585800032323E0FB681A68BB68591CB9601B78EE
:105868005360FB68DB8C9BB2002BB8D13B6800937C
:105878007B6900224021F86800F048FB0346002BB2
:1058880001D003230AE0FB68202283F83920FB6853
:10589800002283F83820002300E002231846183736
:1058A800BD4680BD80B586B000AFF860B9601346CC
:1058B800FB80FB6893F83930DBB2202B53D1BB68EF
:1058C800002B02D0FB88002B01D101234CE0FB68A0
:1058D80093F83830012B01D1022345E0FB680122FF
:1058E80083F83820BA68FB681A62FB68FA889A84D9
:1058F800FB68FA88DA84FB680022DA63FB682122F5
:1059080083F83920FB681B6B194A9A62FB681B6B8A
:10591800184ADA62FB681B6B174A1A63FB681B6B31
:1059280000225A6307F108037B61FB68186B7B69E7
:105938001968FB681B6804331A46FB88FDF718F8DA
:10594800FB681B686FF040021A60FB68002283F84E
:105958003820FB681B68FA681268526942F08002B6
:105968005A61002300E0022318461837BD4680BD5F
:105978008F5D0008E15D0008815E000880B586B093
:1059880000AFF860B9601346FB80FB6893F83A30C3
:10599800DBB2202B66D1BB68002B02D0FB88002B22
:1059A80001D101235FE0FB6893F83830012B01D166
:1059B800022358E0FB68012283F83820BA68FB68A4
:1059C8009A62FB68FA889A85FB680022DA63FB68AA
:1059D800222283F83A20FB685B6B254A9A62FB68AF
:1059E8005B6B244ADA62FB685B6B234A1A63FB68C9
:1059F8005B6B00225A6307F108037B61FB68586BF5
:105A0800FB681B68043319467B691A68FB88FCF736
:105A1800AFFF00233B61FB681B681B683B61FB68A9
:105A28001B685B683B613B69FB68002283F8382090
:105A3800FB681B68FA681268D26842F48072DA6000
:105A4800FB681B68FA681268526942F001025A61E1
:105A5800FB681B68FA681268526942F040025A6192
:105A6800002300E0022318461837BD4680BD00BF5A
:105A7800FD5D0008655E0008815E000880B584B0A1
:105A880000AF78600023FB607B681B685B6903F0EC
:105A98008003002B14BF01230023DBB2FB607B686B
:105AA80093F83930DBB2212B16D1FB68002B13D0C9
:105AB8007B681B687A681268526922F080025A6112
:105AC8007B681B6B002B04D07B681B6B1846FCF7AC
